{
  "contractName": "Airbnb",
  "abi": [
    {
      "inputs": [],
      "stateMutability": "nonpayable",
      "type": "constructor"
    },
    {
      "inputs": [],
      "name": "numberOfFunders",
      "outputs": [
        {
          "internalType": "uint256",
          "name": "",
          "type": "uint256"
        }
      ],
      "stateMutability": "view",
      "type": "function",
      "constant": true
    },
    {
      "inputs": [],
      "name": "owner",
      "outputs": [
        {
          "internalType": "address",
          "name": "",
          "type": "address"
        }
      ],
      "stateMutability": "view",
      "type": "function",
      "constant": true
    },
    {
      "inputs": [
        {
          "internalType": "address",
          "name": "newOwner",
          "type": "address"
        }
      ],
      "name": "transferOwnership",
      "outputs": [],
      "stateMutability": "nonpayable",
      "type": "function"
    },
    {
      "inputs": [],
      "name": "addFunds",
      "outputs": [],
      "stateMutability": "payable",
      "type": "function",
      "payable": true
    },
    {
      "inputs": [],
      "name": "payForRent",
      "outputs": [],
      "stateMutability": "payable",
      "type": "function",
      "payable": true
    },
    {
      "inputs": [],
      "name": "getAllFunders",
      "outputs": [
        {
          "internalType": "address[]",
          "name": "",
          "type": "address[]"
        }
      ],
      "stateMutability": "view",
      "type": "function",
      "constant": true
    },
    {
      "inputs": [
        {
          "internalType": "uint256",
          "name": "withdrawAmount",
          "type": "uint256"
        }
      ],
      "name": "withdraw",
      "outputs": [],
      "stateMutability": "nonpayable",
      "type": "function"
    }
  ],
  "bytecode": "0x608060405234801561001057600080fd5b5033600360006101000a81548173ffffffffffffffffffffffffffffffffffffffff021916908373ffffffffffffffffffffffffffffffffffffffff160217905550610a66806100616000396000f3fe6080604052600436106100705760003560e01c80638da5cb5b1161004e5780638da5cb5b146100d3578063a26759cb146100fe578063dc79a7fc14610108578063f2fde38b1461013357610070565b8063152f0847146100755780632e1a7d4d1461007f5780636fbbb55d146100a8575b600080fd5b61007d61015c565b005b34801561008b57600080fd5b506100a660048036038101906100a19190610660565b61027a565b005b3480156100b457600080fd5b506100bd61030e565b6040516100ca919061077d565b60405180910390f35b3480156100df57600080fd5b506100e8610407565b6040516100f591906107ae565b60405180910390f35b61010661042d565b005b34801561011457600080fd5b5061011d61054b565b60405161012a91906107d8565b60405180910390f35b34801561013f57600080fd5b5061015a6004803603810190610155919061081f565b610551565b005b6000339050600160008273ffffffffffffffffffffffffffffffffffffffff1673ffffffffffffffffffffffffffffffffffffffff16815260200190815260200160002060009054906101000a900460ff166102775760008060008154809291906101c69061087b565b91905055905060018060008473ffffffffffffffffffffffffffffffffffffffff1673ffffffffffffffffffffffffffffffffffffffff16815260200190815260200160002060006101000a81548160ff021916908315150217905550816002600083815260200190815260200160002060006101000a81548173ffffffffffffffffffffffffffffffffffffffff021916908373ffffffffffffffffffffffffffffffffffffffff160217905550505b50565b670de0b6b3a764000081116102c4576040517f08c379a00000000000000000000000000000000000000000000000000000000081526004016102bb90610946565b60405180910390fd5b3373ffffffffffffffffffffffffffffffffffffffff166108fc829081150290604051600060405180830381858888f1935050505015801561030a573d6000803e3d6000fd5b5050565b60606000805467ffffffffffffffff81111561032d5761032c610966565b5b60405190808252806020026020018201604052801561035b5781602001602082028036833780820191505090505b50905060005b6000548110156103ff576002600082815260200190815260200160002060009054906101000a900473ffffffffffffffffffffffffffffffffffffffff168282815181106103b2576103b1610995565b5b602002602001019073ffffffffffffffffffffffffffffffffffffffff16908173ffffffffffffffffffffffffffffffffffffffff168152505080806103f79061087b565b915050610361565b508091505090565b600360009054906101000a900473ffffffffffffffffffffffffffffffffffffffff1681565b6000339050600160008273ffffffffffffffffffffffffffffffffffffffff1673ffffffffffffffffffffffffffffffffffffffff16815260200190815260200160002060009054906101000a900460ff166105485760008060008154809291906104979061087b565b91905055905060018060008473ffffffffffffffffffffffffffffffffffffffff1673ffffffffffffffffffffffffffffffffffffffff16815260200190815260200160002060006101000a81548160ff021916908315150217905550816002600083815260200190815260200160002060006101000a81548173ffffffffffffffffffffffffffffffffffffffff021916908373ffffffffffffffffffffffffffffffffffffffff160217905550505b50565b60005481565b600360009054906101000a900473ffffffffffffffffffffffffffffffffffffffff1673ffffffffffffffffffffffffffffffffffffffff163373ffffffffffffffffffffffffffffffffffffffff16146105e1576040517f08c379a00000000000000000000000000000000000000000000000000000000081526004016105d890610a10565b60405180910390fd5b80600360006101000a81548173ffffffffffffffffffffffffffffffffffffffff021916908373ffffffffffffffffffffffffffffffffffffffff16021790555050565b600080fd5b6000819050919050565b61063d8161062a565b811461064857600080fd5b50565b60008135905061065a81610634565b92915050565b60006020828403121561067657610675610625565b5b60006106848482850161064b565b91505092915050565b600081519050919050565b600082825260208201905092915050565b6000819050602082019050919050565b600073ffffffffffffffffffffffffffffffffffffffff82169050919050565b60006106e4826106b9565b9050919050565b6106f4816106d9565b82525050565b600061070683836106eb565b60208301905092915050565b6000602082019050919050565b600061072a8261068d565b6107348185610698565b935061073f836106a9565b8060005b8381101561077057815161075788826106fa565b975061076283610712565b925050600181019050610743565b5085935050505092915050565b60006020820190508181036000830152610797818461071f565b905092915050565b6107a8816106d9565b82525050565b60006020820190506107c3600083018461079f565b92915050565b6107d28161062a565b82525050565b60006020820190506107ed60008301846107c9565b92915050565b6107fc816106d9565b811461080757600080fd5b50565b600081359050610819816107f3565b92915050565b60006020828403121561083557610834610625565b5b60006108438482850161080a565b91505092915050565b7f4e487b7100000000000000000000000000000000000000000000000000000000600052601160045260246000fd5b60006108868261062a565b91507fffffffffffffffffffffffffffffffffffffffffffffffffffffffffffffffff82036108b8576108b761084c565b5b600182019050919050565b600082825260208201905092915050565b7f596f752063616e2774207769746864726177206d6f7265207468616e2031206560008201527f7468657200000000000000000000000000000000000000000000000000000000602082015250565b60006109306024836108c3565b915061093b826108d4565b604082019050919050565b6000602082019050818103600083015261095f81610923565b9050919050565b7f4e487b7100000000000000000000000000000000000000000000000000000000600052604160045260246000fd5b7f4e487b7100000000000000000000000000000000000000000000000000000000600052603260045260246000fd5b7f4f6e6c7920746865206f776e65722063616e20646f2074686174000000000000600082015250565b60006109fa601a836108c3565b9150610a05826109c4565b602082019050919050565b60006020820190508181036000830152610a29816109ed565b905091905056fea2646970667358221220565c2bf48fa1f5d4c1a9f6d46e6accfaf161a53bb762d29cda72a1fd3ec619c964736f6c63430008130033",
  "immutableReferences": {},
  "source": "// SPDX-License-Identifier: MIT\r\n\r\npragma solidity >=0.4.22 <0.9.0;\r\n\r\n\r\ncontract Airbnb {\r\n    uint public numberOfFunders;\r\n    mapping(address => bool) private funders;\r\n    mapping(uint => address) private lutFunders;\r\n    address public owner;\r\n\r\n    constructor() {\r\n        owner = msg.sender;\r\n    }\r\n\r\n    modifier onlyOwner() {\r\n        require(msg.sender == owner, \"Only the owner can do that\");\r\n    _;\r\n    }\r\n\r\n    function transferOwnership(address newOwner) external onlyOwner{\r\n        owner = newOwner;\r\n    }\r\n\r\n    function addFunds() external payable{\r\n        address funder = msg.sender;\r\n        if(!funders[funder]) {\r\n            uint index = numberOfFunders++;\r\n            funders[funder] = true;\r\n            lutFunders[index] = funder;\r\n        }\r\n    }\r\n\r\n    function payForRent() external payable{\r\n        address funder = msg.sender;\r\n        if(!funders[funder]) {\r\n            uint index = numberOfFunders++;\r\n            funders[funder] = true;\r\n            lutFunders[index] = funder;\r\n        }\r\n    }\r\n\r\n    function getAllFunders() external view returns(address[] memory) {\r\n        address[] memory _funders = new address[](numberOfFunders);\r\n        for(uint i=0; i<numberOfFunders; i++){\r\n        _funders[i] = lutFunders[i];\r\n        }\r\n        return _funders;\r\n    }\r\n    \r\n    function withdraw(uint withdrawAmount) external {\r\n        require(withdrawAmount > 1000000000000000000, \"You can't withdraw more than 1 ether\");\r\n        payable (msg.sender).transfer(withdrawAmount);\r\n    } \r\n}\r\n",
  "sourcePath": "C:\\Users\\ASUS\\Desktop\\FinalPtoject\\airbnbweb3\\contracts\\airbnb.sol",
  "compiler": {
    "name": "solc",
    "version": "0.8.19+commit.7dd6d404.Emscripten.clang"
  },
  "schemaVersion": "3.4.13",
  "updatedAt": "2023-04-14T07:53:04.925Z",
  "networkType": "ethereum",
  "devdoc": {
    "kind": "dev",
    "methods": {},
    "version": 1
  },
  "userdoc": {
    "kind": "user",
    "methods": {},
    "version": 1
  }
}